{"abi":[{"inputs":[{"internalType":"address","name":"_factoryV1","type":"address"},{"internalType":"address","name":"_router","type":"address"}],"stateMutability":"nonpayable","type":"constructor"},{"inputs":[{"internalType":"address","name":"token","type":"address"},{"internalType":"uint256","name":"amountTokenMin","type":"uint256"},{"internalType":"uint256","name":"amountETHMin","type":"uint256"},{"internalType":"address","name":"to","type":"address"},{"internalType":"uint256","name":"deadline","type":"uint256"}],"name":"migrate","outputs":[],"stateMutability":"nonpayable","type":"function"},{"stateMutability":"payable","type":"receive"}],"bytecode":{"linkReferences":{},"object":"0x60c060405234801561001057600080fd5b506040516109483803806109488339818101604052604081101561003357600080fd5b5080516020909101516001600160601b0319606092831b8116608052911b1660a05260805160601c60a05160601c6108c1610087600039806102fe5280610328528061040d525080608352506108c16000f3fe6080604052600436106100225760003560e01c8063b7df1d251461002e57610029565b3661002957005b600080fd5b34801561003a57600080fd5b5061007d600480360360a081101561005157600080fd5b506001600160a01b0381358116916020810135916040820135916060810135909116906080013561007f565b005b60007f00000000000000000000000000000000000000000000000000000000000000006001600160a01b03166306f2bf62876040518263ffffffff1660e01b815260040180826001600160a01b0316815260200191505060206040518083038186803b1580156100ee57600080fd5b505afa158015610102573d6000803e3d6000fd5b505050506040513d602081101561011857600080fd5b5051604080516370a0823160e01b815233600482015290519192506000916001600160a01b038416916370a08231916024808301926020929190829003018186803b15801561016657600080fd5b505afa15801561017a573d6000803e3d6000fd5b505050506040513d602081101561019057600080fd5b5051604080516323b872dd60e01b81523360048201523060248201526044810183905290519192506001600160a01b038416916323b872dd916064808201926020929091908290030181600087803b1580156101eb57600080fd5b505af11580156101ff573d6000803e3d6000fd5b505050506040513d602081101561021557600080fd5b505161025f576040805162461bcd60e51b81526020600482015260146024820152731514905394d1915497d19493d357d1905253115160621b604482015290519081900360640190fd5b60408051637c45f8ad60e11b81526004810183905260016024820181905260448201526000196064820152815160009283926001600160a01b0387169263f88bf15a9260848084019391929182900301818787803b1580156102c057600080fd5b505af11580156102d4573d6000803e3d6000fd5b505050506040513d60408110156102ea57600080fd5b5080516020909101519092509050610323897f000000000000000000000000000000000000000000000000000000000000000083610466565b6000807f00000000000000000000000000000000000000000000000000000000000000006001600160a01b031663f305d719858d868e8e8e8e6040518863ffffffff1660e01b815260040180876001600160a01b03168152602001868152602001858152602001848152602001836001600160a01b0316815260200182815260200196505050505050506060604051808303818588803b1580156103c657600080fd5b505af11580156103da573d6000803e3d6000fd5b50505050506040513d60608110156103f157600080fd5b508051602090910151909250905081831115610445576104338b7f00000000000000000000000000000000000000000000000000000000000000006000610466565b6104408b338486036105ba565b610459565b808411156104595761045933828603610707565b5050505050505050505050565b604080516001600160a01b038481166024830152604480830185905283518084039091018152606490920183526020820180516001600160e01b031663095ea7b360e01b178152925182516000946060949389169392918291908083835b602083106104e35780518252601f1990920191602091820191016104c4565b6001836020036101000a0380198251168184511680821785525050505050509050019150506000604051808303816000865af19150503d8060008114610545576040519150601f19603f3d011682016040523d82523d6000602084013e61054a565b606091505b5091509150818015610578575080511580610578575080806020019051602081101561057557600080fd5b50515b6105b35760405162461bcd60e51b815260040180806020018281038252602b815260200180610834602b913960400191505060405180910390fd5b5050505050565b604080516001600160a01b038481166024830152604480830185905283518084039091018152606490920183526020820180516001600160e01b031663a9059cbb60e01b178152925182516000946060949389169392918291908083835b602083106106375780518252601f199092019160209182019101610618565b6001836020036101000a0380198251168184511680821785525050505050509050019150506000604051808303816000865af19150503d8060008114610699576040519150601f19603f3d011682016040523d82523d6000602084013e61069e565b606091505b50915091508180156106cc5750805115806106cc57508080602001905160208110156106c957600080fd5b50515b6105b35760405162461bcd60e51b815260040180806020018281038252602d81526020018061085f602d913960400191505060405180910390fd5b604080516000808252602082019092526001600160a01b0384169083906040518082805190602001908083835b602083106107535780518252601f199092019160209182019101610734565b6001836020036101000a03801982511681845116808217855250505050505090500191505060006040518083038185875af1925050503d80600081146107b5576040519150601f19603f3d011682016040523d82523d6000602084013e6107ba565b606091505b50509050806107fa5760405162461bcd60e51b81526004018080602001828103825260348152602001806108006034913960400191505060405180910390fd5b50505056fe5472616e7366657248656c7065723a3a736166655472616e736665724554483a20455448207472616e73666572206661696c65645472616e7366657248656c7065723a3a73616665417070726f76653a20617070726f7665206661696c65645472616e7366657248656c7065723a3a736166655472616e736665723a207472616e73666572206661696c6564a264697066735822122085c5a32add5582a03d5f13cc64c81be907ef72d9abe2e5a666e38194a39fb84764736f6c634300060c0033"}}