{"abi":[{"inputs":[{"internalType":"address","name":"factory_","type":"address"}],"stateMutability":"nonpayable","type":"constructor"},{"inputs":[],"name":"factory","outputs":[{"internalType":"address","name":"","type":"address"}],"stateMutability":"view","type":"function"},{"inputs":[{"internalType":"address","name":"tokenA","type":"address"},{"internalType":"address","name":"tokenB","type":"address"},{"internalType":"uint256","name":"truePriceTokenA","type":"uint256"},{"internalType":"uint256","name":"truePriceTokenB","type":"uint256"},{"internalType":"uint256","name":"liquidityAmount","type":"uint256"}],"name":"getGasCostOfGetLiquidityValueAfterArbitrageToPrice","outputs":[{"internalType":"uint256","name":"","type":"uint256"}],"stateMutability":"view","type":"function"},{"inputs":[{"internalType":"address","name":"tokenA","type":"address"},{"internalType":"address","name":"tokenB","type":"address"},{"internalType":"uint256","name":"liquidityAmount","type":"uint256"}],"name":"getLiquidityValue","outputs":[{"internalType":"uint256","name":"tokenAAmount","type":"uint256"},{"internalType":"uint256","name":"tokenBAmount","type":"uint256"}],"stateMutability":"view","type":"function"},{"inputs":[{"internalType":"address","name":"tokenA","type":"address"},{"internalType":"address","name":"tokenB","type":"address"},{"internalType":"uint256","name":"truePriceTokenA","type":"uint256"},{"internalType":"uint256","name":"truePriceTokenB","type":"uint256"},{"internalType":"uint256","name":"liquidityAmount","type":"uint256"}],"name":"getLiquidityValueAfterArbitrageToPrice","outputs":[{"internalType":"uint256","name":"tokenAAmount","type":"uint256"},{"internalType":"uint256","name":"tokenBAmount","type":"uint256"}],"stateMutability":"view","type":"function"},{"inputs":[{"internalType":"address","name":"tokenA","type":"address"},{"internalType":"address","name":"tokenB","type":"address"},{"internalType":"uint256","name":"truePriceTokenA","type":"uint256"},{"internalType":"uint256","name":"truePriceTokenB","type":"uint256"}],"name":"getReservesAfterArbitrage","outputs":[{"internalType":"uint256","name":"reserveA","type":"uint256"},{"internalType":"uint256","name":"reserveB","type":"uint256"}],"stateMutability":"view","type":"function"}],"bytecode":{"linkReferences":{},"object":"0x60a060405234801561001057600080fd5b506040516111003803806111008339818101604052602081101561003357600080fd5b5051606081901b6001600160601b0319166080526001600160a01b031661108561007b600039806101a952806101e7528061022a5280610268528061029252506110856000f3fe608060405234801561001057600080fd5b50600436106100575760003560e01c80633558e94c1461005c57806369a2fcbd146100b157806380caa353146100f3578063c45a015514610147578063d9b7a6e71461016b575b600080fd5b6100986004803603608081101561007257600080fd5b506001600160a01b038135811691602081013590911690604081013590606001356101a1565b6040805192835260208301919091528051918290030190f35b610098600480360360a08110156100c757600080fd5b506001600160a01b038135811691602081013590911690604081013590606081013590608001356101df565b610135600480360360a081101561010957600080fd5b506001600160a01b0381358116916020810135909116906040810135906060810135906080013561021f565b60408051918252519081900360200190f35b61014f610266565b604080516001600160a01b039092168252519081900360200190f35b6100986004803603606081101561018157600080fd5b506001600160a01b0381358116916020810135909116906040013561028a565b6000806101d17f0000000000000000000000000000000000000000000000000000000000000000878787876102c5565b915091505b94509492505050565b6000806102107f00000000000000000000000000000000000000000000000000000000000000008888888888610389565b915091505b9550959350505050565b6000805a90506102537f00000000000000000000000000000000000000000000000000000000000000008888888888610389565b505060005a909103979650505050505050565b7f000000000000000000000000000000000000000000000000000000000000000081565b6000806102b97f000000000000000000000000000000000000000000000000000000000000000086868661057a565b91509150935093915050565b6000806102d387878761071c565b909250905081158015906102e75750600081115b6103225760405162461bcd60e51b815260040180806020018281038252602d815260200180610f84602d913960400191505060405180910390fd5b600080610331868686866107ea565b915091508060001415610345575050610215565b81156103665760006103588286866108b0565b94820194909303925061037d565b60006103738285876108b0565b9094039350918201915b50509550959350505050565b6000806000806001600160a01b0316896001600160a01b031663017e7e586040518163ffffffff1660e01b815260040160206040518083038186803b1580156103d157600080fd5b505afa1580156103e5573d6000803e3d6000fd5b505050506040513d60208110156103fb57600080fd5b50516001600160a01b03161415905060006104178a8a8a610988565b905060008261042757600061048d565b816001600160a01b0316637464fc3d6040518163ffffffff1660e01b815260040160206040518083038186803b15801561046057600080fd5b505afa158015610474573d6000803e3d6000fd5b505050506040513d602081101561048a57600080fd5b50515b90506000826001600160a01b03166318160ddd6040518163ffffffff1660e01b815260040160206040518083038186803b1580156104ca57600080fd5b505afa1580156104de573d6000803e3d6000fd5b505050506040513d60208110156104f457600080fd5b505190508681108015906105085750600087115b6105435760405162461bcd60e51b8152600401808060200182810382526027815260200180610ffe6027913960400191505060405180910390fd5b6000806105538e8e8e8e8e6102c5565b915091506105658282858c8a89610a48565b97509750505050505050965096945050505050565b60008060008061058b88888861071c565b91509150600061059c898989610988565b90506000806001600160a01b03168a6001600160a01b031663017e7e586040518163ffffffff1660e01b815260040160206040518083038186803b1580156105e357600080fd5b505afa1580156105f7573d6000803e3d6000fd5b505050506040513d602081101561060d57600080fd5b50516001600160a01b03161415905060008161062a576000610690565b826001600160a01b0316637464fc3d6040518163ffffffff1660e01b815260040160206040518083038186803b15801561066357600080fd5b505afa158015610677573d6000803e3d6000fd5b505050506040513d602081101561068d57600080fd5b50515b90506000836001600160a01b03166318160ddd6040518163ffffffff1660e01b815260040160206040518083038186803b1580156106cd57600080fd5b505afa1580156106e1573d6000803e3d6000fd5b505050506040513d60208110156106f757600080fd5b505190506107098686838c8787610a48565b9750975050505050505094509492505050565b600080600061072b8585610afd565b50905060008061073c888888610988565b6001600160a01b0316630902f1ac6040518163ffffffff1660e01b815260040160606040518083038186803b15801561077457600080fd5b505afa158015610788573d6000803e3d6000fd5b505050506040513d606081101561079e57600080fd5b5080516020909101516dffffffffffffffffffffffffffff91821693501690506001600160a01b03878116908416146107d85780826107db565b81815b90999098509650505050505050565b600080856107f9858786610bdb565b10915060006108088585610c96565b9050600061084e61084961081e846103e8610c96565b86610829578961082b565b8a5b6108446103e58961083c578d61083e565b8c5b90610c96565b610bdb565b610cff565b905060006103e58561086b57610866876103e8610c96565b610877565b610877886103e8610c96565b8161087e57fe5b0490508082101561089857600080945094505050506101d6565b6108a28282610e47565b935050505094509492505050565b60008084116108f05760405162461bcd60e51b815260040180806020018281038252602b815260200180611025602b913960400191505060405180910390fd5b6000831180156109005750600082115b61093b5760405162461bcd60e51b8152600401808060200182810382526028815260200180610fd66028913960400191505060405180910390fd5b6000610949856103e5610c96565b905060006109578285610c96565b905060006109718361096b886103e8610c96565b90610e97565b905080828161097c57fe5b04979650505050505050565b60008060006109978585610afd565b604080516bffffffffffffffffffffffff19606094851b811660208084019190915293851b81166034830152825160288184030181526048830184528051908501206001600160f81b031960688401529a90941b9093166069840152607d8301989098527f96e8ac4277198ff8b6f785478aa9a39f403cb768dd02cbee326c3e7da348845f609d808401919091528851808403909101815260bd909201909752805196019590952095945050505050565b600080838015610a585750600083115b15610ac8576000610a6c6108498a8a610c96565b90506000610a7985610cff565b905080821115610ac557876000610a908484610e47565b90506000610aa38461096b876005610c96565b90506000610ab2848484610bdb565b9050610abe8c82610e97565b9b50505050505b50505b85610ad38987610c96565b81610ada57fe5b0486610ae68988610c96565b81610aed57fe5b0491509150965096945050505050565b600080826001600160a01b0316846001600160a01b03161415610b515760405162461bcd60e51b8152600401808060200182810382526025815260200180610fb16025913960400191505060405180910390fd5b826001600160a01b0316846001600160a01b031610610b71578284610b74565b83835b90925090506001600160a01b038216610bd4576040805162461bcd60e51b815260206004820152601e60248201527f556e697377617056324c6962726172793a205a45524f5f414444524553530000604482015290519081900360640190fd5b9250929050565b6000806000610bea8686610ee6565b9150915060008480610bf857fe5b868809905082811115610c0c576001820391505b918290039181610c2a57848381610c1f57fe5b049350505050610c8f565b848210610c7e576040805162461bcd60e51b815260206004820152601a60248201527f46756c6c4d6174683a2046554c4c4449565f4f564552464c4f57000000000000604482015290519081900360640190fd5b610c89838387610f13565b93505050505b9392505050565b6000811580610cb157505080820282828281610cae57fe5b04145b610cf9576040805162461bcd60e51b815260206004820152601460248201527364732d6d6174682d6d756c2d6f766572666c6f7760601b604482015290519081900360640190fd5b92915050565b600081610d0e57506000610e42565b816001600160801b8210610d275760809190911c9060401b5b680100000000000000008210610d425760409190911c9060201b5b6401000000008210610d595760209190911c9060101b5b620100008210610d6e5760109190911c9060081b5b6101008210610d825760089190911c9060041b5b60108210610d955760049190911c9060021b5b60088210610da15760011b5b6001818581610dac57fe5b048201901c90506001818581610dbe57fe5b048201901c90506001818581610dd057fe5b048201901c90506001818581610de257fe5b048201901c90506001818581610df457fe5b048201901c90506001818581610e0657fe5b048201901c90506001818581610e1857fe5b048201901c90506000818581610e2a57fe5b049050808210610e3a5780610e3c565b815b93505050505b919050565b80820382811115610cf9576040805162461bcd60e51b815260206004820152601560248201527464732d6d6174682d7375622d756e646572666c6f7760581b604482015290519081900360640190fd5b80820182811015610cf9576040805162461bcd60e51b815260206004820152601460248201527364732d6d6174682d6164642d6f766572666c6f7760601b604482015290519081900360640190fd5b6000808060001984860990508385029250828103915082811015610f0b576001820391505b509250929050565b60008181038216808381610f2357fe5b049250808581610f2f57fe5b049450808160000381610f3e57fe5b6002858103808702820302808702820302808702820302808702820302808702820302808702820302958602900390940293046001019390930293909301029291505056fe556e697377617056324172626974726167654c6962726172793a205a45524f5f504149525f5245534552564553556e697377617056324c6962726172793a204944454e544943414c5f414444524553534553556e697377617056324c6962726172793a20494e53554646494349454e545f4c4951554944495459436f6d707574654c697175696469747956616c75653a204c49515549444954595f414d4f554e54556e697377617056324c6962726172793a20494e53554646494349454e545f494e5055545f414d4f554e54a264697066735822122002a32c2a342bab1a2075e4b767714d29f538abe03894438ba641937767d9ee2364736f6c634300060c0033"}}