{"abi":[{"anonymous":false,"inputs":[{"indexed":false,"internalType":"uint256[]","name":"amounts","type":"uint256[]"}],"name":"Amounts","type":"event"},{"inputs":[{"internalType":"address","name":"router","type":"address"},{"internalType":"uint256","name":"amountOut","type":"uint256"},{"internalType":"address[]","name":"path","type":"address[]"},{"internalType":"address","name":"to","type":"address"},{"internalType":"uint256","name":"deadline","type":"uint256"}],"name":"swapETHForExactTokens","outputs":[],"stateMutability":"payable","type":"function"},{"inputs":[{"internalType":"address","name":"router","type":"address"},{"internalType":"uint256","name":"amountOutMin","type":"uint256"},{"internalType":"address[]","name":"path","type":"address[]"},{"internalType":"address","name":"to","type":"address"},{"internalType":"uint256","name":"deadline","type":"uint256"}],"name":"swapExactETHForTokens","outputs":[],"stateMutability":"payable","type":"function"},{"inputs":[{"internalType":"address","name":"router","type":"address"},{"internalType":"uint256","name":"amountIn","type":"uint256"},{"internalType":"uint256","name":"amountOutMin","type":"uint256"},{"internalType":"address[]","name":"path","type":"address[]"},{"internalType":"address","name":"to","type":"address"},{"internalType":"uint256","name":"deadline","type":"uint256"}],"name":"swapExactTokensForETH","outputs":[],"stateMutability":"nonpayable","type":"function"},{"inputs":[{"internalType":"address","name":"router","type":"address"},{"internalType":"uint256","name":"amountIn","type":"uint256"},{"internalType":"uint256","name":"amountOutMin","type":"uint256"},{"internalType":"address[]","name":"path","type":"address[]"},{"internalType":"address","name":"to","type":"address"},{"internalType":"uint256","name":"deadline","type":"uint256"}],"name":"swapExactTokensForTokens","outputs":[],"stateMutability":"nonpayable","type":"function"},{"inputs":[{"internalType":"address","name":"router","type":"address"},{"internalType":"uint256","name":"amountOut","type":"uint256"},{"internalType":"uint256","name":"amountInMax","type":"uint256"},{"internalType":"address[]","name":"path","type":"address[]"},{"internalType":"address","name":"to","type":"address"},{"internalType":"uint256","name":"deadline","type":"uint256"}],"name":"swapTokensForExactETH","outputs":[],"stateMutability":"nonpayable","type":"function"},{"inputs":[{"internalType":"address","name":"router","type":"address"},{"internalType":"uint256","name":"amountOut","type":"uint256"},{"internalType":"uint256","name":"amountInMax","type":"uint256"},{"internalType":"address[]","name":"path","type":"address[]"},{"internalType":"address","name":"to","type":"address"},{"internalType":"uint256","name":"deadline","type":"uint256"}],"name":"swapTokensForExactTokens","outputs":[],"stateMutability":"nonpayable","type":"function"},{"stateMutability":"payable","type":"receive"}],"bytecode":{"linkReferences":{},"object":"0x608060405234801561001057600080fd5b50610ca4806100206000396000f3fe6080604052600436106100595760003560e01c806322b5841014610065578063375734d91461010d5780639c91fcb5146101b3578063b05f579e14610259578063fa3219d5146102eb578063fde1adda1461039157610060565b3661006057005b600080fd5b34801561007157600080fd5b5061010b600480360360c081101561008857600080fd5b6001600160a01b038235169160208101359160408201359190810190608081016060820135600160201b8111156100be57600080fd5b8201836020820111156100d057600080fd5b803590602001918460208302840111600160201b831117156100f157600080fd5b91935091506001600160a01b038135169060200135610423565b005b34801561011957600080fd5b5061010b600480360360c081101561013057600080fd5b6001600160a01b038235169160208101359160408201359190810190608081016060820135600160201b81111561016657600080fd5b82018360208201111561017857600080fd5b803590602001918460208302840111600160201b8311171561019957600080fd5b91935091506001600160a01b038135169060200135610693565b3480156101bf57600080fd5b5061010b600480360360c08110156101d657600080fd5b6001600160a01b038235169160208101359160408201359190810190608081016060820135600160201b81111561020c57600080fd5b82018360208201111561021e57600080fd5b803590602001918460208302840111600160201b8311171561023f57600080fd5b91935091506001600160a01b038135169060200135610773565b61010b600480360360a081101561026f57600080fd5b6001600160a01b0382351691602081013591810190606081016040820135600160201b81111561029e57600080fd5b8201836020820111156102b057600080fd5b803590602001918460208302840111600160201b831117156102d157600080fd5b91935091506001600160a01b038135169060200135610853565b3480156102f757600080fd5b5061010b600480360360c081101561030e57600080fd5b6001600160a01b038235169160208101359160408201359190810190608081016060820135600160201b81111561034457600080fd5b82018360208201111561035657600080fd5b803590602001918460208302840111600160201b8311171561037757600080fd5b91935091506001600160a01b038135169060200135610aba565b61010b600480360360a08110156103a757600080fd5b6001600160a01b0382351691602081013591810190606081016040820135600160201b8111156103d657600080fd5b8201836020820111156103e857600080fd5b803590602001918460208302840111600160201b8311171561040957600080fd5b91935091506001600160a01b038135169060200135610b9a565b60006060886001600160a01b0316638803dbee60e01b8989898989896040516024018087815260200186815260200180602001846001600160a01b031681526020018381526020018281038252868682818152602001925060200280828437600081840152601f19601f820116905080830192505050975050505050505050604051602081830303815290604052906001600160e01b0319166020820180516001600160e01b0383818316178352505050506040518082805190602001908083835b602083106105045780518252601f1990920191602091820191016104e5565b6001836020036101000a038019825116818451168082178552505050505050905001915050600060405180830381855af49150503d8060008114610564576040519150601f19603f3d011682016040523d82523d6000602084013e610569565b606091505b50915091508161057557fe5b7f4cc17991e3610e3400e74a8306aa421daaee1e3446fa22b490604610999e10b38180602001905160208110156105ab57600080fd5b8101908080516040519392919084600160201b8211156105ca57600080fd5b9083019060208201858111156105df57600080fd5b82518660208202830111600160201b821117156105fb57600080fd5b82525081516020918201928201910280838360005b83811015610628578181015183820152602001610610565b505050509050016040525050506040518080602001828103825283818151815260200191508051906020019060200280838360005b8381101561067557818101518382015260200161065d565b505050509050019250505060405180910390a1505050505050505050565b60006060886001600160a01b03166338ed173960e01b8989898989896040516024018087815260200186815260200180602001846001600160a01b031681526020018381526020018281038252868682818152602001925060200280828437600081840152601f19601f820116905080830192505050975050505050505050604051602081830303815290604052906001600160e01b0319166020820180516001600160e01b038381831617835250505050604051808280519060200190808383602083106105045780518252601f1990920191602091820191016104e5565b60006060886001600160a01b03166318cbafe560e01b8989898989896040516024018087815260200186815260200180602001846001600160a01b031681526020018381526020018281038252868682818152602001925060200280828437600081840152601f19601f820116905080830192505050975050505050505050604051602081830303815290604052906001600160e01b0319166020820180516001600160e01b038381831617835250505050604051808280519060200190808383602083106105045780518252601f1990920191602091820191016104e5565b60006060876001600160a01b031663fb3bdb4160e01b88888888886040516024018086815260200180602001846001600160a01b031681526020018381526020018281038252868682818152602001925060200280828437600081840152601f19601f8201169050808301925050509650505050505050604051602081830303815290604052906001600160e01b0319166020820180516001600160e01b0383818316178352505050506040518082805190602001908083835b6020831061092c5780518252601f19909201916020918201910161090d565b6001836020036101000a038019825116818451168082178552505050505050905001915050600060405180830381855af49150503d806000811461098c576040519150601f19603f3d011682016040523d82523d6000602084013e610991565b606091505b50915091508161099d57fe5b7f4cc17991e3610e3400e74a8306aa421daaee1e3446fa22b490604610999e10b38180602001905160208110156109d357600080fd5b8101908080516040519392919084600160201b8211156109f257600080fd5b908301906020820185811115610a0757600080fd5b82518660208202830111600160201b82111715610a2357600080fd5b82525081516020918201928201910280838360005b83811015610a50578181015183820152602001610a38565b505050509050016040525050506040518080602001828103825283818151815260200191508051906020019060200280838360005b83811015610a9d578181015183820152602001610a85565b505050509050019250505060405180910390a15050505050505050565b60006060886001600160a01b0316634a25d94a60e01b8989898989896040516024018087815260200186815260200180602001846001600160a01b031681526020018381526020018281038252868682818152602001925060200280828437600081840152601f19601f820116905080830192505050975050505050505050604051602081830303815290604052906001600160e01b0319166020820180516001600160e01b038381831617835250505050604051808280519060200190808383602083106105045780518252601f1990920191602091820191016104e5565b60006060876001600160a01b0316637ff36ab560e01b88888888886040516024018086815260200180602001846001600160a01b03168152602001838152602001828103825286868281815260200192506020028082843760008382015260408051601f909201601f199081169094018281039094018252928352602080820180516001600160e01b03166001600160e01b0319909d169c909c178c5292518151919b909a508a99509750955085945087935086925050831061092c5780518252601f19909201916020918201910161090d56fea26469706673582212207e7f3258f344538644dbf9b57fbcf6a36f9b3224b889a861296de43e471e019a64736f6c634300060c0033"}}