{"abi":[{"inputs":[{"internalType":"address","name":"_factory","type":"address"},{"internalType":"address","name":"_WETH","type":"address"}],"stateMutability":"nonpayable","type":"constructor"},{"inputs":[],"name":"WETH","outputs":[{"internalType":"address","name":"","type":"address"}],"stateMutability":"view","type":"function"},{"inputs":[{"internalType":"address","name":"tokenA","type":"address"},{"internalType":"address","name":"tokenB","type":"address"},{"internalType":"uint256","name":"amountADesired","type":"uint256"},{"internalType":"uint256","name":"amountBDesired","type":"uint256"},{"internalType":"uint256","name":"amountAMin","type":"uint256"},{"internalType":"uint256","name":"amountBMin","type":"uint256"},{"internalType":"address","name":"to","type":"address"},{"internalType":"uint256","name":"deadline","type":"uint256"}],"name":"addLiquidity","outputs":[{"internalType":"uint256","name":"amountA","type":"uint256"},{"internalType":"uint256","name":"amountB","type":"uint256"},{"internalType":"uint256","name":"liquidity","type":"uint256"}],"stateMutability":"nonpayable","type":"function"},{"inputs":[{"internalType":"address","name":"token","type":"address"},{"internalType":"uint256","name":"amountTokenDesired","type":"uint256"},{"internalType":"uint256","name":"amountTokenMin","type":"uint256"},{"internalType":"uint256","name":"amountETHMin","type":"uint256"},{"internalType":"address","name":"to","type":"address"},{"internalType":"uint256","name":"deadline","type":"uint256"}],"name":"addLiquidityETH","outputs":[{"internalType":"uint256","name":"amountToken","type":"uint256"},{"internalType":"uint256","name":"amountETH","type":"uint256"},{"internalType":"uint256","name":"liquidity","type":"uint256"}],"stateMutability":"payable","type":"function"},{"inputs":[],"name":"factory","outputs":[{"internalType":"address","name":"","type":"address"}],"stateMutability":"view","type":"function"},{"inputs":[{"internalType":"bytes","name":"data","type":"bytes"},{"components":[{"internalType":"address payable","name":"gasPayer","type":"address"},{"internalType":"uint256","name":"gasOverhead","type":"uint256"},{"internalType":"address","name":"token","type":"address"}],"internalType":"struct GasMetered.GasPayerRefund","name":"gasRefund","type":"tuple"},{"components":[{"internalType":"address","name":"signer","type":"address"},{"internalType":"uint256","name":"nonce","type":"uint256"},{"internalType":"bytes","name":"signature","type":"bytes"}],"internalType":"struct GasMetered.ReplayProtection","name":"replayProtection","type":"tuple"}],"name":"gasMetered","outputs":[{"internalType":"bool","name":"success","type":"bool"},{"internalType":"bytes","name":"returnData","type":"bytes"}],"stateMutability":"nonpayable","type":"function"},{"inputs":[{"internalType":"uint256","name":"amountOut","type":"uint256"},{"internalType":"uint256","name":"reserveIn","type":"uint256"},{"internalType":"uint256","name":"reserveOut","type":"uint256"}],"name":"getAmountIn","outputs":[{"internalType":"uint256","name":"amountIn","type":"uint256"}],"stateMutability":"pure","type":"function"},{"inputs":[{"internalType":"uint256","name":"amountIn","type":"uint256"},{"internalType":"uint256","name":"reserveIn","type":"uint256"},{"internalType":"uint256","name":"reserveOut","type":"uint256"}],"name":"getAmountOut","outputs":[{"internalType":"uint256","name":"amountOut","type":"uint256"}],"stateMutability":"pure","type":"function"},{"inputs":[{"internalType":"uint256","name":"amountOut","type":"uint256"},{"internalType":"address[]","name":"path","type":"address[]"}],"name":"getAmountsIn","outputs":[{"internalType":"uint256[]","name":"amounts","type":"uint256[]"}],"stateMutability":"view","type":"function"},{"inputs":[{"internalType":"uint256","name":"amountIn","type":"uint256"},{"internalType":"address[]","name":"path","type":"address[]"}],"name":"getAmountsOut","outputs":[{"internalType":"uint256[]","name":"amounts","type":"uint256[]"}],"stateMutability":"view","type":"function"},{"inputs":[],"name":"getChainID","outputs":[{"internalType":"uint256","name":"","type":"uint256"}],"stateMutability":"pure","type":"function"},{"inputs":[{"internalType":"uint256","name":"amountA","type":"uint256"},{"internalType":"uint256","name":"reserveA","type":"uint256"},{"internalType":"uint256","name":"reserveB","type":"uint256"}],"name":"quote","outputs":[{"internalType":"uint256","name":"amountB","type":"uint256"}],"stateMutability":"pure","type":"function"},{"inputs":[{"internalType":"address","name":"tokenA","type":"address"},{"internalType":"address","name":"tokenB","type":"address"},{"internalType":"uint256","name":"liquidity","type":"uint256"},{"internalType":"uint256","name":"amountAMin","type":"uint256"},{"internalType":"uint256","name":"amountBMin","type":"uint256"},{"internalType":"address","name":"to","type":"address"},{"internalType":"uint256","name":"deadline","type":"uint256"}],"name":"removeLiquidity","outputs":[{"internalType":"uint256","name":"amountA","type":"uint256"},{"internalType":"uint256","name":"amountB","type":"uint256"}],"stateMutability":"nonpayable","type":"function"},{"inputs":[{"internalType":"address","name":"token","type":"address"},{"internalType":"uint256","name":"liquidity","type":"uint256"},{"internalType":"uint256","name":"amountTokenMin","type":"uint256"},{"internalType":"uint256","name":"amountETHMin","type":"uint256"},{"internalType":"address","name":"to","type":"address"},{"internalType":"uint256","name":"deadline","type":"uint256"}],"name":"removeLiquidityETH","outputs":[{"internalType":"uint256","name":"amountToken","type":"uint256"},{"internalType":"uint256","name":"amountETH","type":"uint256"}],"stateMutability":"nonpayable","type":"function"},{"inputs":[{"internalType":"address","name":"token","type":"address"},{"internalType":"uint256","name":"liquidity","type":"uint256"},{"internalType":"uint256","name":"amountTokenMin","type":"uint256"},{"internalType":"uint256","name":"amountETHMin","type":"uint256"},{"internalType":"address","name":"to","type":"address"},{"internalType":"uint256","name":"deadline","type":"uint256"}],"name":"removeLiquidityETHSupportingFeeOnTransferTokens","outputs":[{"internalType":"uint256","name":"amountETH","type":"uint256"}],"stateMutability":"nonpayable","type":"function"},{"inputs":[{"internalType":"address","name":"token","type":"address"},{"internalType":"uint256","name":"liquidity","type":"uint256"},{"internalType":"uint256","name":"amountTokenMin","type":"uint256"},{"internalType":"uint256","name":"amountETHMin","type":"uint256"},{"internalType":"address","name":"to","type":"address"},{"internalType":"uint256","name":"deadline","type":"uint256"},{"internalType":"bool","name":"approveMax","type":"bool"},{"internalType":"uint8","name":"v","type":"uint8"},{"internalType":"bytes32","name":"r","type":"bytes32"},{"internalType":"bytes32","name":"s","type":"bytes32"}],"name":"removeLiquidityETHWithPermit","outputs":[{"internalType":"uint256","name":"amountToken","type":"uint256"},{"internalType":"uint256","name":"amountETH","type":"uint256"}],"stateMutability":"nonpayable","type":"function"},{"inputs":[{"internalType":"address","name":"token","type":"address"},{"internalType":"uint256","name":"liquidity","type":"uint256"},{"internalType":"uint256","name":"amountTokenMin","type":"uint256"},{"internalType":"uint256","name":"amountETHMin","type":"uint256"},{"internalType":"address","name":"to","type":"address"},{"internalType":"uint256","name":"deadline","type":"uint256"},{"internalType":"bool","name":"approveMax","type":"bool"},{"internalType":"uint8","name":"v","type":"uint8"},{"internalType":"bytes32","name":"r","type":"bytes32"},{"internalType":"bytes32","name":"s","type":"bytes32"}],"name":"removeLiquidityETHWithPermitSupportingFeeOnTransferTokens","outputs":[{"internalType":"uint256","name":"amountETH","type":"uint256"}],"stateMutability":"nonpayable","type":"function"},{"inputs":[{"internalType":"address","name":"tokenA","type":"address"},{"internalType":"address","name":"tokenB","type":"address"},{"internalType":"uint256","name":"liquidity","type":"uint256"},{"internalType":"uint256","name":"amountAMin","type":"uint256"},{"internalType":"uint256","name":"amountBMin","type":"uint256"},{"internalType":"address","name":"to","type":"address"},{"internalType":"uint256","name":"deadline","type":"uint256"},{"internalType":"bool","name":"approveMax","type":"bool"},{"internalType":"uint8","name":"v","type":"uint8"},{"internalType":"bytes32","name":"r","type":"bytes32"},{"internalType":"bytes32","name":"s","type":"bytes32"}],"name":"removeLiquidityWithPermit","outputs":[{"internalType":"uint256","name":"amountA","type":"uint256"},{"internalType":"uint256","name":"amountB","type":"uint256"}],"stateMutability":"nonpayable","type":"function"},{"inputs":[{"internalType":"bytes32","name":"","type":"bytes32"}],"name":"signedHashes","outputs":[{"internalType":"bool","name":"","type":"bool"}],"stateMutability":"view","type":"function"},{"inputs":[{"internalType":"uint256","name":"amountOut","type":"uint256"},{"internalType":"address[]","name":"path","type":"address[]"},{"internalType":"address","name":"to","type":"address"},{"internalType":"uint256","name":"deadline","type":"uint256"}],"name":"swapETHForExactTokens","outputs":[{"internalType":"uint256[]","name":"amounts","type":"uint256[]"}],"stateMutability":"payable","type":"function"},{"inputs":[{"internalType":"uint256","name":"amountOutMin","type":"uint256"},{"internalType":"address[]","name":"path","type":"address[]"},{"internalType":"address","name":"to","type":"address"},{"internalType":"uint256","name":"deadline","type":"uint256"}],"name":"swapExactETHForTokens","outputs":[{"internalType":"uint256[]","name":"amounts","type":"uint256[]"}],"stateMutability":"payable","type":"function"},{"inputs":[{"internalType":"uint256","name":"amountOutMin","type":"uint256"},{"internalType":"address[]","name":"path","type":"address[]"},{"internalType":"address","name":"to","type":"address"},{"internalType":"uint256","name":"deadline","type":"uint256"}],"name":"swapExactETHForTokensSupportingFeeOnTransferTokens","outputs":[],"stateMutability":"payable","type":"function"},{"inputs":[{"internalType":"uint256","name":"amountIn","type":"uint256"},{"internalType":"uint256","name":"amountOutMin","type":"uint256"},{"internalType":"address[]","name":"path","type":"address[]"},{"internalType":"address","name":"to","type":"address"},{"internalType":"uint256","name":"deadline","type":"uint256"}],"name":"swapExactTokensForETH","outputs":[{"internalType":"uint256[]","name":"amounts","type":"uint256[]"}],"stateMutability":"nonpayable","type":"function"},{"inputs":[{"internalType":"uint256","name":"amountIn","type":"uint256"},{"internalType":"uint256","name":"amountOutMin","type":"uint256"},{"internalType":"address[]","name":"path","type":"address[]"},{"internalType":"address","name":"to","type":"address"},{"internalType":"uint256","name":"deadline","type":"uint256"}],"name":"swapExactTokensForETHSupportingFeeOnTransferTokens","outputs":[],"stateMutability":"nonpayable","type":"function"},{"inputs":[{"internalType":"uint256","name":"amountIn","type":"uint256"},{"internalType":"uint256","name":"amountOutMin","type":"uint256"},{"internalType":"address[]","name":"path","type":"address[]"},{"internalType":"address","name":"to","type":"address"},{"internalType":"uint256","name":"deadline","type":"uint256"}],"name":"swapExactTokensForTokens","outputs":[{"internalType":"uint256[]","name":"amounts","type":"uint256[]"}],"stateMutability":"nonpayable","type":"function"},{"inputs":[{"internalType":"uint256","name":"amountIn","type":"uint256"},{"internalType":"uint256","name":"amountOutMin","type":"uint256"},{"internalType":"address[]","name":"path","type":"address[]"},{"internalType":"address","name":"to","type":"address"},{"internalType":"uint256","name":"deadline","type":"uint256"}],"name":"swapExactTokensForTokensSupportingFeeOnTransferTokens","outputs":[],"stateMutability":"nonpayable","type":"function"},{"inputs":[{"internalType":"uint256","name":"amountOut","type":"uint256"},{"internalType":"uint256","name":"amountInMax","type":"uint256"},{"internalType":"address[]","name":"path","type":"address[]"},{"internalType":"address","name":"to","type":"address"},{"internalType":"uint256","name":"deadline","type":"uint256"}],"name":"swapTokensForExactETH","outputs":[{"internalType":"uint256[]","name":"amounts","type":"uint256[]"}],"stateMutability":"nonpayable","type":"function"},{"inputs":[{"internalType":"uint256","name":"amountOut","type":"uint256"},{"internalType":"uint256","name":"amountInMax","type":"uint256"},{"internalType":"address[]","name":"path","type":"address[]"},{"internalType":"address","name":"to","type":"address"},{"internalType":"uint256","name":"deadline","type":"uint256"}],"name":"swapTokensForExactTokens","outputs":[{"internalType":"uint256[]","name":"amounts","type":"uint256[]"}],"stateMutability":"nonpayable","type":"function"},{"stateMutability":"payable","type":"receive"}],"bytecode":{"linkReferences":{},"object":"0x60c06040523480156200001157600080fd5b5060405162004b9738038062004b97833981016040819052620000349162000053565b6001600160601b0319606092831b8116608052911b1660a052620000aa565b6000806040838503121562000066578182fd5b8251620000738162000091565b6020840151909250620000868162000091565b809150509250929050565b6001600160a01b0381168114620000a757600080fd5b50565b60805160601c60a05160601c6149ab620001ec600039806101b0528061058452806105d45280610787528061097e5280610c885280610db6528061110652806111d95280611297528061132d528061143652806114be52806116b5528061170d52806117da528061186e52806118e552806119595280611ddf5280611ff6528061204c528061208052806121065280612266528061236c52806123f4528061280752806128c052806128f45250806107f752806108bb5280610a445280610a7d5280610b7a5280610cf85280610d945280610ed252806113a252806114f05280611624528061198b5280611ba45280611d645280611d8d5280611dbd5280611eec528061202a52806122db528061242652806127e65280612cda5280612d1d5280612f4552806130ac528061330652806133bb528061344e52506149ab6000f3fe6080604052600436106101a05760003560e01c806385f8c259116100ec578063baa2abde1161008a578063ded9382a11610064578063ded9382a146104dc578063e8e33700146104fc578063f305d7191461052b578063fb3bdb411461053e576101d9565b8063baa2abde14610487578063c45a0155146104a7578063d06ca61f146104bc576101d9565b8063ad615dec116100c6578063ad615dec14610407578063af2979eb14610427578063b6f9de9514610447578063b71723551461045a576101d9565b806385f8c259146103a55780638803dbee146103c5578063ad5c4648146103e5576101d9565b806338ed1739116101595780635b0d5984116101335780635b0d5984146103325780635c11d79514610352578063791ac947146103725780637ff36ab514610392576101d9565b806338ed1739146102dd5780634a25d94a146102fd578063564b81ef1461031d576101d9565b806302751cec146101de578063054d50d4146102155780630996b1041461024257806318cbafe5146102705780631f00ca741461029d5780632195995c146102bd576101d9565b366101d957336001600160a01b037f000000000000000000000000000000000000000000000000000000000000000016146101d757fe5b005b600080fd5b3480156101ea57600080fd5b506101fe6101f9366004613b71565b610551565b60405161020c929190614896565b60405180910390f35b34801561022157600080fd5b50610235610230366004613f6b565b610651565b60405161020c919061488d565b34801561024e57600080fd5b5061026261025d366004613c98565b610666565b60405161020c929190614214565b34801561027c57600080fd5b5061029061028b366004613efa565b61075a565b60405161020c91906141c5565b3480156102a957600080fd5b506102906102b8366004613e20565b610a3d565b3480156102c957600080fd5b506101fe6102d8366004613a4c565b610a73565b3480156102e957600080fd5b506102906102f8366004613efa565b610b52565b34801561030957600080fd5b50610290610318366004613efa565b610c5b565b34801561032957600080fd5b50610235610d87565b34801561033e57600080fd5b5061023561034d366004613bce565b610d8c565b34801561035e57600080fd5b506101d761036d366004613efa565b610e7f565b34801561037e57600080fd5b506101d761038d366004613efa565b6110db565b6102906103a0366004613dbb565b611308565b3480156103b157600080fd5b506102356103c0366004613f6b565b6115ef565b3480156103d157600080fd5b506102906103e0366004613efa565b6115fc565b3480156103f157600080fd5b506103fa6116b3565b60405161020c9190614119565b34801561041357600080fd5b50610235610422366004613f6b565b6116d7565b34801561043357600080fd5b50610235610442366004613b71565b6116e4565b6101d7610455366004613dbb565b61184b565b34801561046657600080fd5b5061047a610475366004613c80565b611b64565b60405161020c9190614209565b34801561049357600080fd5b506101fe6104a23660046139db565b611b79565b3480156104b357600080fd5b506103fa611d62565b3480156104c857600080fd5b506102906104d7366004613e20565b611d86565b3480156104e857600080fd5b506101fe6104f7366004613bce565b611db3565b34801561050857600080fd5b5061051c610517366004613af6565b611eac565b60405161020c939291906148d1565b61051c610539366004613b71565b611fca565b61029061054c366004613dbb565b612241565b600080824281101561057e5760405162461bcd60e51b8152600401610575906142ea565b60405180910390fd5b6105ad897f00000000000000000000000000000000000000000000000000000000000000008a8a8a308a611b79565b90935091506105bd89868561255e565b604051632e1a7d4d60e01b81526001600160a01b037f00000000000000000000000000000000000000000000000000000000000000001690632e1a7d4d9061060990859060040161488d565b600060405180830381600087803b15801561062357600080fd5b505af1158015610637573d6000803e3d6000fd5b50505050610645858361264c565b50965096945050505050565b600061065e8484846126de565b949350505050565b60006060600084602001515a0190506106808686866126eb565b8351604051309161069691899190602001614000565b60408051601f19818403018152908290526106b091613fe4565b6000604051808303816000865af19150503d80600081146106ed576040519150601f19603f3d011682016040523d82523d6000602084013e6106f2565b606091505b50809350819450505060008061070b87604001516127dc565b9150915061071a5a8490612939565b925060006107283a8561295c565b90506000610737828585610651565b60408a015189518b5192935061074d9284612993565b5050505050935093915050565b6060814281101561077d5760405162461bcd60e51b8152600401610575906142ea565b6001600160a01b037f000000000000000000000000000000000000000000000000000000000000000016868660001981018181106107b757fe5b90506020020160208101906107cc919061399c565b6001600160a01b0316146107f25760405162461bcd60e51b81526004016105759061453b565b6108507f000000000000000000000000000000000000000000000000000000000000000089888880806020026020016040519081016040528093929190818152602001838360200280828437600092019190915250612a8492505050565b9150868260018451038151811061086357fe5b602002602001015110156108895760405162461bcd60e51b815260040161057590614773565b61093d8686600081811061089957fe5b90506020020160208101906108ae919061399c565b6108b6612b9b565b6109237f00000000000000000000000000000000000000000000000000000000000000008a8a60008181106108e757fe5b90506020020160208101906108fc919061399c565b8b8b600181811061090957fe5b905060200201602081019061091e919061399c565b612bbb565b8560008151811061093057fe5b6020026020010151612993565b61097c82878780806020026020016040519081016040528093929190818152602001838360200280828437600092019190915250309250612c2b915050565b7f00000000000000000000000000000000000000000000000000000000000000006001600160a01b0316632e1a7d4d836001855103815181106109bb57fe5b60200260200101516040518263ffffffff1660e01b81526004016109df919061488d565b600060405180830381600087803b1580156109f957600080fd5b505af1158015610a0d573d6000803e3d6000fd5b50505050610a328483600185510381518110610a2557fe5b602002602001015161264c565b509695505050505050565b6060610a6a7f00000000000000000000000000000000000000000000000000000000000000008484612deb565b90505b92915050565b6000806000610aa37f00000000000000000000000000000000000000000000000000000000000000008f8f612bbb565b9050600087610ab2578c610ab6565b6000195b9050816001600160a01b031663d505accf610acf612b9b565b30848d8c8c8c6040518863ffffffff1660e01b8152600401610af7979695949392919061412d565b600060405180830381600087803b158015610b1157600080fd5b505af1158015610b25573d6000803e3d6000fd5b50505050610b388f8f8f8f8f8f8f611b79565b809450819550505050509b509b9950505050505050505050565b60608142811015610b755760405162461bcd60e51b8152600401610575906142ea565b610bd37f000000000000000000000000000000000000000000000000000000000000000089888880806020026020016040519081016040528093929190818152602001838360200280828437600092019190915250612a8492505050565b91508682600184510381518110610be657fe5b60200260200101511015610c0c5760405162461bcd60e51b815260040161057590614773565b610c1c8686600081811061089957fe5b610a3282878780806020026020016040519081016040528093929190818152602001838360200280828437600092019190915250899250612c2b915050565b60608142811015610c7e5760405162461bcd60e51b8152600401610575906142ea565b6001600160a01b037f00000000000000000000000000000000000000000000000000000000000000001686866000198101818110610cb857fe5b9050602002016020810190610ccd919061399c565b6001600160a01b031614610cf35760405162461bcd60e51b81526004016105759061453b565b610d517f000000000000000000000000000000000000000000000000000000000000000089888880806020026020016040519081016040528093929190818152602001838360200280828437600092019190915250612deb92505050565b91508682600081518110610d6157fe5b602002602001015111156108895760405162461bcd60e51b8152600401610575906146e6565b465b90565b600080610dda7f00000000000000000000000000000000000000000000000000000000000000008d7f0000000000000000000000000000000000000000000000000000000000000000612bbb565b9050600086610de9578b610ded565b6000195b9050816001600160a01b031663d505accf610e06612b9b565b30848c8b8b8b6040518863ffffffff1660e01b8152600401610e2e979695949392919061412d565b600060405180830381600087803b158015610e4857600080fd5b505af1158015610e5c573d6000803e3d6000fd5b50505050610e6e8d8d8d8d8d8d6116e4565b9d9c50505050505050505050505050565b8042811015610ea05760405162461bcd60e51b8152600401610575906142ea565b610f2685856000818110610eb057fe5b9050602002016020810190610ec5919061399c565b610ecd612b9b565b610f207f000000000000000000000000000000000000000000000000000000000000000089896000818110610efe57fe5b9050602002016020810190610f13919061399c565b8a8a600181811061090957fe5b8a612993565b600085856000198101818110610f3857fe5b9050602002016020810190610f4d919061399c565b6001600160a01b03166370a08231856040518263ffffffff1660e01b8152600401610f789190614119565b60206040518083038186803b158015610f9057600080fd5b505afa158015610fa4573d6000803e3d6000fd5b505050506040513d601f19601f82011682018060405250810190610fc89190613da3565b9050611008868680806020026020016040519081016040528093929190818152602001838360200280828437600092019190915250889250612eee915050565b866110b3828888600019810181811061101d57fe5b9050602002016020810190611032919061399c565b6001600160a01b03166370a08231886040518263ffffffff1660e01b815260040161105d9190614119565b60206040518083038186803b15801561107557600080fd5b505afa158015611089573d6000803e3d6000fd5b505050506040513d601f19601f820116820180604052508101906110ad9190613da3565b90612939565b10156110d15760405162461bcd60e51b815260040161057590614773565b5050505050505050565b80428110156110fc5760405162461bcd60e51b8152600401610575906142ea565b6001600160a01b037f0000000000000000000000000000000000000000000000000000000000000000168585600019810181811061113657fe5b905060200201602081019061114b919061399c565b6001600160a01b0316146111715760405162461bcd60e51b81526004016105759061453b565b61118185856000818110610eb057fe5b6111bf858580806020026020016040519081016040528093929190818152602001838360200280828437600092019190915250309250612eee915050565b6040516370a0823160e01b81526000906001600160a01b037f000000000000000000000000000000000000000000000000000000000000000016906370a082319061120e903090600401614119565b60206040518083038186803b15801561122657600080fd5b505afa15801561123a573d6000803e3d6000fd5b505050506040513d601f19601f8201168201806040525081019061125e9190613da3565b9050868110156112805760405162461bcd60e51b815260040161057590614773565b604051632e1a7d4d60e01b81526001600160a01b037f00000000000000000000000000000000000000000000000000000000000000001690632e1a7d4d906112cc90849060040161488d565b600060405180830381600087803b1580156112e657600080fd5b505af11580156112fa573d6000803e3d6000fd5b505050506110d1848261264c565b6060814281101561132b5760405162461bcd60e51b8152600401610575906142ea565b7f00000000000000000000000000000000000000000000000000000000000000006001600160a01b03168686600081811061136257fe5b9050602002016020810190611377919061399c565b6001600160a01b03161461139d5760405162461bcd60e51b81526004016105759061453b565b6113fb7f000000000000000000000000000000000000000000000000000000000000000034888880806020026020016040519081016040528093929190818152602001838360200280828437600092019190915250612a8492505050565b9150868260018451038151811061140e57fe5b602002602001015110156114345760405162461bcd60e51b815260040161057590614773565b7f00000000000000000000000000000000000000000000000000000000000000006001600160a01b031663d0e30db08360008151811061147057fe5b60200260200101516040518263ffffffff1660e01b81526004016000604051808303818588803b1580156114a357600080fd5b505af11580156114b7573d6000803e3d6000fd5b50505050507f00000000000000000000000000000000000000000000000000000000000000006001600160a01b031663a9059cbb61151c7f000000000000000000000000000000000000000000000000000000000000000089896000818110610efe57fe5b8460008151811061152957fe5b60200260200101516040518363ffffffff1660e01b815260040161154e9291906141ac565b602060405180830381600087803b15801561156857600080fd5b505af115801561157c573d6000803e3d6000fd5b505050506040513d601f19601f820116820180604052508101906115a09190613c64565b6115a657fe5b6115e582878780806020026020016040519081016040528093929190818152602001838360200280828437600092019190915250899250612c2b915050565b5095945050505050565b600061065e848484613164565b6060814281101561161f5760405162461bcd60e51b8152600401610575906142ea565b61167d7f000000000000000000000000000000000000000000000000000000000000000089888880806020026020016040519081016040528093929190818152602001838360200280828437600092019190915250612deb92505050565b9150868260008151811061168d57fe5b60200260200101511115610c0c5760405162461bcd60e51b8152600401610575906146e6565b7f000000000000000000000000000000000000000000000000000000000000000081565b600061065e8484846131fe565b600081428110156117075760405162461bcd60e51b8152600401610575906142ea565b611736887f00000000000000000000000000000000000000000000000000000000000000008989893089611b79565b6040516370a0823160e01b81529093506117c39150899086906001600160a01b038316906370a082319061176e903090600401614119565b60206040518083038186803b15801561178657600080fd5b505afa15801561179a573d6000803e3d6000fd5b505050506040513d601f19601f820116820180604052508101906117be9190613da3565b61255e565b604051632e1a7d4d60e01b81526001600160a01b037f00000000000000000000000000000000000000000000000000000000000000001690632e1a7d4d9061180f90859060040161488d565b600060405180830381600087803b15801561182957600080fd5b505af115801561183d573d6000803e3d6000fd5b50505050610a32848361264c565b804281101561186c5760405162461bcd60e51b8152600401610575906142ea565b7f00000000000000000000000000000000000000000000000000000000000000006001600160a01b0316858560008181106118a357fe5b90506020020160208101906118b8919061399c565b6001600160a01b0316146118de5760405162461bcd60e51b81526004016105759061453b565b60003490507f00000000000000000000000000000000000000000000000000000000000000006001600160a01b031663d0e30db0826040518263ffffffff1660e01b81526004016000604051808303818588803b15801561193e57600080fd5b505af1158015611952573d6000803e3d6000fd5b50505050507f00000000000000000000000000000000000000000000000000000000000000006001600160a01b031663a9059cbb6119b77f000000000000000000000000000000000000000000000000000000000000000089896000818110610efe57fe5b836040518363ffffffff1660e01b81526004016119d59291906141ac565b602060405180830381600087803b1580156119ef57600080fd5b505af1158015611a03573d6000803e3d6000fd5b505050506040513d601f19601f82011682018060405250810190611a279190613c64565b611a2d57fe5b600086866000198101818110611a3f57fe5b9050602002016020810190611a54919061399c565b6001600160a01b03166370a08231866040518263ffffffff1660e01b8152600401611a7f9190614119565b60206040518083038186803b158015611a9757600080fd5b505afa158015611aab573d6000803e3d6000fd5b505050506040513d601f19601f82011682018060405250810190611acf9190613da3565b9050611b0f878780806020026020016040519081016040528093929190818152602001838360200280828437600092019190915250899250612eee915050565b876110b38289896000198101818110611b2457fe5b9050602002016020810190611b39919061399c565b6001600160a01b03166370a08231896040518263ffffffff1660e01b815260040161105d9190614119565b60006020819052908152604090205460ff1681565b6000808242811015611b9d5760405162461bcd60e51b8152600401610575906142ea565b6000611bca7f00000000000000000000000000000000000000000000000000000000000000008c8c612bbb565b9050806001600160a01b03166323b872dd611be3612b9b565b838c6040518463ffffffff1660e01b8152600401611c039392919061416e565b602060405180830381600087803b158015611c1d57600080fd5b505af1158015611c31573d6000803e3d6000fd5b505050506040513d601f19601f82011682018060405250810190611c559190613c64565b50600080826001600160a01b03166389afcb44896040518263ffffffff1660e01b8152600401611c859190614119565b6040805180830381600087803b158015611c9e57600080fd5b505af1158015611cb2573d6000803e3d6000fd5b505050506040513d601f19601f82011682018060405250810190611cd69190613ed7565b915091506000611ce68e8e613266565b509050806001600160a01b03168e6001600160a01b031614611d09578183611d0c565b82825b90975095508a871015611d315760405162461bcd60e51b81526004016105759061472d565b89861015611d515760405162461bcd60e51b8152600401610575906144b3565b505050505097509795505050505050565b7f000000000000000000000000000000000000000000000000000000000000000081565b6060610a6a7f00000000000000000000000000000000000000000000000000000000000000008484612a84565b6000806000611e037f00000000000000000000000000000000000000000000000000000000000000008e7f0000000000000000000000000000000000000000000000000000000000000000612bbb565b9050600087611e12578c611e16565b6000195b9050816001600160a01b031663d505accf611e2f612b9b565b30848d8c8c8c6040518863ffffffff1660e01b8152600401611e57979695949392919061412d565b600060405180830381600087803b158015611e7157600080fd5b505af1158015611e85573d6000803e3d6000fd5b50505050611e978e8e8e8e8e8e610551565b909f909e509c50505050505050505050505050565b60008060008342811015611ed25760405162461bcd60e51b8152600401610575906142ea565b611ee08c8c8c8c8c8c6132f0565b90945092506000611f127f00000000000000000000000000000000000000000000000000000000000000008e8e612bbb565b9050611f278d611f20612b9b565b8388612993565b611f3a8c611f33612b9b565b8387612993565b6040516335313c2160e11b81526001600160a01b03821690636a62784290611f66908a90600401614119565b602060405180830381600087803b158015611f8057600080fd5b505af1158015611f94573d6000803e3d6000fd5b505050506040513d601f19601f82011682018060405250810190611fb89190613da3565b92505050985098509895505050505050565b60008060008342811015611ff05760405162461bcd60e51b8152600401610575906142ea565b61201e8a7f00000000000000000000000000000000000000000000000000000000000000008b348c8c6132f0565b909450925060006120707f00000000000000000000000000000000000000000000000000000000000000008c7f0000000000000000000000000000000000000000000000000000000000000000612bbb565b905061207e8b611f20612b9b565b7f00000000000000000000000000000000000000000000000000000000000000006001600160a01b031663d0e30db0856040518263ffffffff1660e01b81526004016000604051808303818588803b1580156120d957600080fd5b505af11580156120ed573d6000803e3d6000fd5b505060405163a9059cbb60e01b81526001600160a01b037f000000000000000000000000000000000000000000000000000000000000000016935063a9059cbb92506121409150849088906004016141ac565b602060405180830381600087803b15801561215a57600080fd5b505af115801561216e573d6000803e3d6000fd5b505050506040513d601f19601f820116820180604052508101906121929190613c64565b61219857fe5b6040516335313c2160e11b81526001600160a01b03821690636a627842906121c4908a90600401614119565b602060405180830381600087803b1580156121de57600080fd5b505af11580156121f2573d6000803e3d6000fd5b505050506040513d601f19601f820116820180604052508101906122169190613da3565b9250833411156122335761223361222b612b9b565b85340361264c565b505096509650969350505050565b606081428110156122645760405162461bcd60e51b8152600401610575906142ea565b7f00000000000000000000000000000000000000000000000000000000000000006001600160a01b03168686600081811061229b57fe5b90506020020160208101906122b0919061399c565b6001600160a01b0316146122d65760405162461bcd60e51b81526004016105759061453b565b6123347f000000000000000000000000000000000000000000000000000000000000000088888880806020026020016040519081016040528093929190818152602001838360200280828437600092019190915250612deb92505050565b9150348260008151811061234457fe5b6020026020010151111561236a5760405162461bcd60e51b8152600401610575906146e6565b7f00000000000000000000000000000000000000000000000000000000000000006001600160a01b031663d0e30db0836000815181106123a657fe5b60200260200101516040518263ffffffff1660e01b81526004016000604051808303818588803b1580156123d957600080fd5b505af11580156123ed573d6000803e3d6000fd5b50505050507f00000000000000000000000000000000000000000000000000000000000000006001600160a01b031663a9059cbb6124527f000000000000000000000000000000000000000000000000000000000000000089896000818110610efe57fe5b8460008151811061245f57fe5b60200260200101516040518363ffffffff1660e01b81526004016124849291906141ac565b602060405180830381600087803b15801561249e57600080fd5b505af11580156124b2573d6000803e3d6000fd5b505050506040513d601f19601f820116820180604052508101906124d69190613c64565b6124dc57fe5b61251b82878780806020026020016040519081016040528093929190818152602001838360200280828437600092019190915250899250612c2b915050565b8160008151811061252857fe5b60200260200101513411156115e5576115e5612542612b9b565b8360008151811061254f57fe5b6020026020010151340361264c565b60006060846001600160a01b031663a9059cbb85856040516024016125849291906141ac565b6040516020818303038152906040529060e01b6020820180516001600160e01b0383818316178352505050506040516125bd9190613fe4565b6000604051808303816000865af19150503d80600081146125fa576040519150601f19603f3d011682016040523d82523d6000602084013e6125ff565b606091505b50915091508180156126295750805115806126295750808060200190518101906126299190613c64565b6126455760405162461bcd60e51b8152600401610575906147be565b5050505050565b604080516000808252602082019092526001600160a01b0384169083906040516126769190613fe4565b60006040518083038185875af1925050503d80600081146126b3576040519150601f19603f3d011682016040523d82523d6000602084013e6126b8565b606091505b50509050806126d95760405162461bcd60e51b81526004016105759061441a565b505050565b600061065e848484613525565b6000838360000151846020015185604001518560000151866020015161270f610d87565b30604051602001612727989796959493929190614032565b60408051601f19818403018152918152815160209283012060008181529283905291205490915060ff161561276e5760405162461bcd60e51b8152600401610575906145e0565b600061278661277c836135bf565b84604001516135ef565b905082600001516001600160a01b0316816001600160a01b0316146127bd5760405162461bcd60e51b815260040161057590614572565b506000908152602081905260409020805460ff19166001179055505050565b600080600061282c7f00000000000000000000000000000000000000000000000000000000000000007f000000000000000000000000000000000000000000000000000000000000000086612bbb565b9050600080826001600160a01b0316630902f1ac6040518163ffffffff1660e01b815260040160606040518083038186803b15801561286a57600080fd5b505afa15801561287e573d6000803e3d6000fd5b505050506040513d601f19601f820116820180604052508101906128a29190613d4f565b506001600160701b031691506001600160701b0316915060006128e57f000000000000000000000000000000000000000000000000000000000000000088613266565b509050806001600160a01b03167f00000000000000000000000000000000000000000000000000000000000000006001600160a01b03161461292857818361292b565b82825b909890975095505050505050565b80820382811115610a6d5760405162461bcd60e51b815260040161057590614284565b60008115806129775750508082028282828161297457fe5b04145b610a6d5760405162461bcd60e51b815260040161057590614321565b60006060856001600160a01b03166323b872dd8686866040516024016129bb9392919061416e565b6040516020818303038152906040529060e01b6020820180516001600160e01b0383818316178352505050506040516129f49190613fe4565b6000604051808303816000865af19150503d8060008114612a31576040519150601f19603f3d011682016040523d82523d6000602084013e612a36565b606091505b5091509150818015612a60575080511580612a60575080806020019051810190612a609190613c64565b612a7c5760405162461bcd60e51b8152600401610575906143c9565b505050505050565b6060600282511015612aa85760405162461bcd60e51b8152600401610575906145a9565b815167ffffffffffffffff81118015612ac057600080fd5b50604051908082528060200260200182016040528015612aea578160200160208202803683370190505b5090508281600081518110612afb57fe5b60200260200101818152505060005b6001835103811015612b9357600080612b4d87868581518110612b2957fe5b6020026020010151878660010181518110612b4057fe5b6020026020010151613630565b91509150612b6f848481518110612b6057fe5b60200260200101518383613525565b848460010181518110612b7e57fe5b60209081029190910101525050600101612b0a565b509392505050565b600033301415612bb457612bad613709565b9050610d89565b5033610d89565b6000806000612bca8585613266565b91509150858282604051602001612be2929190613fc2565b60405160208183030381529060405280519060200120604051602001612c099291906140c8565b60408051601f1981840301815291905280516020909101209695505050505050565b60005b6001835103811015612de557600080848381518110612c4957fe5b6020026020010151858460010181518110612c6057fe5b6020026020010151915091506000612c788383613266565b5090506000878560010181518110612c8c57fe5b60200260200101519050600080836001600160a01b0316866001600160a01b031614612cba57826000612cbe565b6000835b91509150600060028a51038810612cd55788612d16565b612d167f0000000000000000000000000000000000000000000000000000000000000000878c8b60020181518110612d0957fe5b6020026020010151612bbb565b9050612d437f00000000000000000000000000000000000000000000000000000000000000008888612bbb565b6001600160a01b031663022c0d9f84848460006040519080825280601f01601f191660200182016040528015612d80576020820181803683370190505b506040518563ffffffff1660e01b8152600401612da094939291906148a4565b600060405180830381600087803b158015612dba57600080fd5b505af1158015612dce573d6000803e3d6000fd5b505060019099019850612c2e975050505050505050565b50505050565b6060600282511015612e0f5760405162461bcd60e51b8152600401610575906145a9565b815167ffffffffffffffff81118015612e2757600080fd5b50604051908082528060200260200182016040528015612e51578160200160208202803683370190505b5090508281600183510381518110612e6557fe5b60209081029190910101528151600019015b8015612b9357600080612ea787866001860381518110612e9357fe5b6020026020010151878681518110612b4057fe5b91509150612ec9848481518110612eba57fe5b60200260200101518383613164565b846001850381518110612ed857fe5b6020908102919091010152505060001901612e77565b60005b60018351038110156126d957600080848381518110612f0c57fe5b6020026020010151858460010181518110612f2357fe5b6020026020010151915091506000612f3b8383613266565b5090506000612f6b7f00000000000000000000000000000000000000000000000000000000000000008585612bbb565b9050600080600080846001600160a01b0316630902f1ac6040518163ffffffff1660e01b815260040160606040518083038186803b158015612fac57600080fd5b505afa158015612fc0573d6000803e3d6000fd5b505050506040513d601f19601f82011682018060405250810190612fe49190613d4f565b506001600160701b031691506001600160701b03169150600080876001600160a01b03168a6001600160a01b03161461301e578284613021565b83835b91509150613055828b6001600160a01b03166370a082318a6040518263ffffffff1660e01b815260040161105d9190614119565b9550613062868383613525565b945050505050600080856001600160a01b0316886001600160a01b03161461308c57826000613090565b6000835b91509150600060028c51038a106130a7578a6130db565b6130db7f0000000000000000000000000000000000000000000000000000000000000000898e8d60020181518110612d0957fe5b6040805160008152602081019182905263022c0d9f60e01b9091529091506001600160a01b0387169063022c0d9f9061311d90869086908690602481016148a4565b600060405180830381600087803b15801561313757600080fd5b505af115801561314b573d6000803e3d6000fd5b50506001909b019a50612ef19950505050505050505050565b60008084116131855760405162461bcd60e51b81526004016105759061434f565b6000831180156131955750600082115b6131b15760405162461bcd60e51b815260040161057590614617565b60006131c96103e86131c3868861295c565b9061295c565b905060006131dd6103e56131c38689612939565b90506131f460018284816131ed57fe5b0490613756565b9695505050505050565b600080841161321f5760405162461bcd60e51b8152600401610575906146a1565b60008311801561322f5750600082115b61324b5760405162461bcd60e51b815260040161057590614617565b82613256858461295c565b8161325d57fe5b04949350505050565b600080826001600160a01b0316846001600160a01b0316141561329b5760405162461bcd60e51b81526004016105759061446e565b826001600160a01b0316846001600160a01b0316106132bb5782846132be565b83835b90925090506001600160a01b0382166132e95760405162461bcd60e51b81526004016105759061480b565b9250929050565b60405163e6a4390560e01b8152600090819081907f00000000000000000000000000000000000000000000000000000000000000006001600160a01b03169063e6a4390590613345908c908c90600401614192565b60206040518083038186803b15801561335d57600080fd5b505afa158015613371573d6000803e3d6000fd5b505050506040513d601f19601f8201168201806040525081019061339591906139bf565b6001600160a01b03161415613446576040516364e329cb60e11b81526001600160a01b037f0000000000000000000000000000000000000000000000000000000000000000169063c9c65396906133f2908b908b90600401614192565b602060405180830381600087803b15801561340c57600080fd5b505af1158015613420573d6000803e3d6000fd5b505050506040513d601f19601f8201168201806040525081019061344491906139bf565b505b6000806134747f00000000000000000000000000000000000000000000000000000000000000008b8b613630565b91509150816000148015613486575080155b1561349657879350869250613518565b60006134a38984846131fe565b90508781116134d757858110156134cc5760405162461bcd60e51b8152600401610575906144b3565b889450925082613516565b60006134e48984866131fe565b9050898111156134f057fe5b878110156135105760405162461bcd60e51b81526004016105759061472d565b94508793505b505b5050965096945050505050565b60008084116135465760405162461bcd60e51b815260040161057590614842565b6000831180156135565750600082115b6135725760405162461bcd60e51b815260040161057590614617565b6000613580856103e561295c565b9050600061358e828561295c565b905060006135a8836135a2886103e861295c565b90613756565b90508082816135b357fe5b04979650505050505050565b6000816040516020016135d29190614097565b604051602081830303815290604052805190602001209050919050565b600081516041146136125760405162461bcd60e51b8152600401610575906142b3565b60208201516040830151606084015160001a6131f486828585613779565b600080600061363f8585613266565b509050600080613650888888612bbb565b6001600160a01b0316630902f1ac6040518163ffffffff1660e01b815260040160606040518083038186803b15801561368857600080fd5b505afa15801561369c573d6000803e3d6000fd5b505050506040513d601f19601f820116820180604052508101906136c09190613d4f565b506001600160701b031691506001600160701b03169150826001600160a01b0316876001600160a01b0316146136f75780826136fa565b81815b90999098509650505050505050565b600060606000368080601f0160208091040260200160405190810160405280939291908181526020018383808284376000920191909152505050503601516001600160a01b031692915050565b80820182811015610a6d5760405162461bcd60e51b81526004016105759061439b565b60007f7fffffffffffffffffffffffffffffff5d576e7357a4501ddfe92f46681b20a08211156137bb5760405162461bcd60e51b8152600401610575906144f9565b8360ff16601b14806137d057508360ff16601c145b6137ec5760405162461bcd60e51b81526004016105759061465f565b600060018686868660405160008152602001604052604051613811949392919061422f565b6020604051602081039080840390855afa158015613833573d6000803e3d6000fd5b5050604051601f1901519150506001600160a01b0381166138665760405162461bcd60e51b81526004016105759061424d565b95945050505050565b8035610a6d8161493a565b60008083601f84011261388b578182fd5b50813567ffffffffffffffff8111156138a2578182fd5b60208301915083602080830285010111156132e957600080fd5b600082601f8301126138cc578081fd5b813567ffffffffffffffff8111156138e2578182fd5b6138f5601f8201601f19166020016148e7565b915080825283602082850101111561390c57600080fd5b8060208401602084013760009082016020015292915050565b600060608284031215613936578081fd5b61394060606148e7565b9050813561394d8161493a565b815260208281013590820152604082013567ffffffffffffffff81111561397357600080fd5b61397f848285016138bc565b60408301525092915050565b803560ff81168114610a6d57600080fd5b6000602082840312156139ad578081fd5b81356139b88161493a565b9392505050565b6000602082840312156139d0578081fd5b81516139b88161493a565b600080600080600080600060e0888a0312156139f5578283fd5b8735613a008161493a565b96506020880135613a108161493a565b955060408801359450606088013593506080880135925060a0880135613a358161493a565b8092505060c0880135905092959891949750929550565b60008060008060008060008060008060006101608c8e031215613a6d578384fd5b8b35613a788161493a565b9a5060208c0135613a888161493a565b995060408c0135985060608c0135975060808c0135965060a08c0135613aad8161493a565b955060c08c0135945060e08c0135613ac481614952565b9350613ad48d6101008e0161398b565b92506101208c013591506101408c013590509295989b509295989b9093969950565b600080600080600080600080610100898b031215613b12578384fd5b8835613b1d8161493a565b97506020890135613b2d8161493a565b965060408901359550606089013594506080890135935060a0890135925060c0890135613b598161493a565b8092505060e089013590509295985092959890939650565b60008060008060008060c08789031215613b89578384fd5b8635613b948161493a565b95506020870135945060408701359350606087013592506080870135613bb98161493a565b8092505060a087013590509295509295509295565b6000806000806000806000806000806101408b8d031215613bed578384fd5b8a35613bf88161493a565b995060208b0135985060408b0135975060608b0135965060808b0135613c1d8161493a565b955060a08b0135945060c08b0135613c3481614952565b9350613c438c60e08d0161398b565b92506101008b013591506101208b013590509295989b9194979a5092959850565b600060208284031215613c75578081fd5b81516139b881614952565b600060208284031215613c91578081fd5b5035919050565b600080600083850360a0811215613cad578182fd5b843567ffffffffffffffff80821115613cc4578384fd5b613cd0888389016138bc565b95506060601f1984011215613ce3578384fd5b613ced60606148e7565b925060208701359150613cff8261493a565b90825260408601356020830152606086013590613d1b8261493a565b8160408401528294506080870135925080831115613d37578384fd5b5050613d4586828701613925565b9150509250925092565b600080600060608486031215613d63578081fd5b8351613d6e81614960565b6020850151909350613d7f81614960565b604085015190925063ffffffff81168114613d98578182fd5b809150509250925092565b600060208284031215613db4578081fd5b5051919050565b600080600080600060808688031215613dd2578283fd5b85359450602086013567ffffffffffffffff811115613def578384fd5b613dfb8882890161387a565b9095509350506040860135613e0f8161493a565b949793965091946060013592915050565b60008060408385031215613e32578182fd5b8235915060208084013567ffffffffffffffff80821115613e51578384fd5b818601915086601f830112613e64578384fd5b813581811115613e72578485fd5b8381029150613e828483016148e7565b8181528481019084860184860187018b1015613e9c578788fd5b8795505b83861015613ec657613eb28b8261386f565b835260019590950194918601918601613ea0565b508096505050505050509250929050565b60008060408385031215613ee9578182fd5b505080516020909101519092909150565b60008060008060008060a08789031215613f12578384fd5b8635955060208701359450604087013567ffffffffffffffff811115613f36578485fd5b613f4289828a0161387a565b9095509350506060870135613f568161493a565b80925050608087013590509295509295509295565b600080600060608486031215613f7f578081fd5b505081359360208301359350604090920135919050565b60008151808452613fae81602086016020860161490e565b601f01601f19169290920160200192915050565b6001600160601b0319606093841b811682529190921b16601482015260280190565b60008251613ff681846020870161490e565b9190910192915050565b6000835161401281846020880161490e565b60609390931b6001600160601b0319169190920190815260140192915050565b60008951614044818460208e0161490e565b6060998a1b6001600160601b03199081169390910192835260148301989098525094871b8616603486015292861b85166048850152605c840191909152607c83015290921b16609c82015260b001919050565b7f19457468657265756d205369676e6564204d6573736167653a0a3332000000008152601c810191909152603c0190565b6001600160f81b0319815260609290921b6001600160601b031916600183015260158201527f96e8ac4277198ff8b6f785478aa9a39f403cb768dd02cbee326c3e7da348845f603582015260550190565b6001600160a01b0391909116815260200190565b6001600160a01b0397881681529590961660208601526040850193909352606084019190915260ff16608083015260a082015260c081019190915260e00190565b6001600160a01b039384168152919092166020820152604081019190915260600190565b6001600160a01b0392831681529116602082015260400190565b6001600160a01b03929092168252602082015260400190565b6020808252825182820181905260009190848201906040850190845b818110156141fd578351835292840192918401916001016141e1565b50909695505050505050565b901515815260200190565b600083151582526040602083015261065e6040830184613f96565b93845260ff9290921660208401526040830152606082015260800190565b60208082526018908201527f45434453413a20696e76616c6964207369676e61747572650000000000000000604082015260600190565b60208082526015908201527464732d6d6174682d7375622d756e646572666c6f7760581b604082015260600190565b6020808252601f908201527f45434453413a20696e76616c6964207369676e6174757265206c656e67746800604082015260600190565b60208082526018908201527f556e69737761705632526f757465723a20455850495245440000000000000000604082015260600190565b60208082526014908201527364732d6d6174682d6d756c2d6f766572666c6f7760601b604082015260600190565b6020808252602c908201527f556e697377617056324c6962726172793a20494e53554646494349454e545f4f60408201526b155514155517d05353d5539560a21b606082015260800190565b60208082526014908201527364732d6d6174682d6164642d6f766572666c6f7760601b604082015260600190565b60208082526031908201527f5472616e7366657248656c7065723a3a7472616e7366657246726f6d3a207472604082015270185b9cd9995c919c9bdb4819985a5b1959607a1b606082015260800190565b60208082526034908201527f5472616e7366657248656c7065723a3a736166655472616e736665724554483a60408201527308115512081d1c985b9cd9995c8819985a5b195960621b606082015260800190565b60208082526025908201527f556e697377617056324c6962726172793a204944454e544943414c5f41444452604082015264455353455360d81b606082015260800190565b60208082526026908201527f556e69737761705632526f757465723a20494e53554646494349454e545f425f604082015265105353d5539560d21b606082015260800190565b60208082526022908201527f45434453413a20696e76616c6964207369676e6174757265202773272076616c604082015261756560f01b606082015260800190565b6020808252601d908201527f556e69737761705632526f757465723a20494e56414c49445f50415448000000604082015260600190565b6020808252601a908201527f4761734d6574657265643a20494e56414c49445f5349474e4552000000000000604082015260600190565b6020808252601e908201527f556e697377617056324c6962726172793a20494e56414c49445f504154480000604082015260600190565b60208082526017908201527f4761734d6574657265643a205245504c41595f55534544000000000000000000604082015260600190565b60208082526028908201527f556e697377617056324c6962726172793a20494e53554646494349454e545f4c604082015267495155494449545960c01b606082015260800190565b60208082526022908201527f45434453413a20696e76616c6964207369676e6174757265202776272076616c604082015261756560f01b606082015260800190565b60208082526025908201527f556e697377617056324c6962726172793a20494e53554646494349454e545f416040820152641353d5539560da1b606082015260800190565b60208082526027908201527f556e69737761705632526f757465723a204558434553534956455f494e50555460408201526617d05353d5539560ca1b606082015260800190565b60208082526026908201527f556e69737761705632526f757465723a20494e53554646494349454e545f415f604082015265105353d5539560d21b606082015260800190565b6020808252602b908201527f556e69737761705632526f757465723a20494e53554646494349454e545f4f5560408201526a1514155517d05353d5539560aa1b606082015260800190565b6020808252602d908201527f5472616e7366657248656c7065723a3a736166655472616e736665723a20747260408201526c185b9cd9995c8819985a5b1959609a1b606082015260800190565b6020808252601e908201527f556e697377617056324c6962726172793a205a45524f5f414444524553530000604082015260600190565b6020808252602b908201527f556e697377617056324c6962726172793a20494e53554646494349454e545f4960408201526a1394155517d05353d5539560aa1b606082015260800190565b90815260200190565b918252602082015260400190565b600085825284602083015260018060a01b0384166040830152608060608301526131f46080830184613f96565b9283526020830191909152604082015260600190565b60405181810167ffffffffffffffff8111828210171561490657600080fd5b604052919050565b60005b83811015614929578181015183820152602001614911565b83811115612de55750506000910152565b6001600160a01b038116811461494f57600080fd5b50565b801515811461494f57600080fd5b6001600160701b038116811461494f57600080fdfea264697066735822122053fb21c2fae0f9f914d8fd5b1f2e64666c1964685ffca912734950dedf4ff6a264736f6c634300060c0033"}}